:020000040800F2
:100000000050002065300008C52F0008CD2F0008E3
:10001000D52F0008DD2F0008E52F000800000000A4
:10002000000000000000000000000000ED2F0008AC
:10003000F92F00080000000005300008113000080A
:10004000AD300008AD300008AD300008AD3000081C
:10005000AD300008AD300008AD300008AD3000080C
:10006000AD300008AD300008AD300008AD300008FC
:10007000AD300008AD300008AD300008AD300008EC
:10008000AD300008AD300008AD300008AD300008DC
:10009000AD300008AD300008AD300008AD300008CC
:1000A000AD300008AD300008AD300008AD300008BC
:1000B0001D300008AD300008AD300008AD3000083C
:1000C000AD300008AD300008AD300008AD3000089C
:1000D000AD30000831300008AD3000084530000870
:1000E000AD300008AD300008AD3000080000000061
:1000F0000000000000000000000000000000000000
:0C01000000000000000000005FF808F1A3
:1001100010B5054C237833B9044B13B10448AFF341
:1001200000800123237010BD70000020000000003B
:100130007860000808B5034B1BB103490348AFF3CF
:10014000008008BD000000007400002078600008F6
:1001500081F0004102E000BF83F0004330B54FEA78
:1001600041044FEA430594EA050F08BF90EA020FE5
:100170001FBF54EA000C55EA020C7FEA645C7FEA78
:10018000655C00F0E2804FEA5454D4EB5555B8BF9B
:100190006D420CDD2C4480EA020281EA030382EA0C
:1001A000000083EA010180EA020281EA0303362D9E
:1001B00088BF30BD11F0004F4FEA01314FF4801C71
:1001C0004CEA113102D0404261EB410113F0004F83
:1001D0004FEA03334CEA133302D0524263EB43033A
:1001E00094EA050F00F0A780A4F10104D5F1200ED8
:1001F0000DDB02FA0EFC22FA05F2801841F1000133
:1002000003FA0EF2801843FA05F359410EE0A5F106
:1002100020050EF1200E012A03FA0EFC28BF4CF037
:10022000020C43FA05F3C01851EBE37101F00045ED
:1002300007D54FF0000EDCF1000C7EEB00006EEBFA
:100240000101B1F5801F1BD3B1F5001F0CD3490884
:100250005FEA30004FEA3C0C04F101044FEA4452DB
:1002600012F5800F80F09A80BCF1004F08BF5FEA62
:10027000500C50F1000041EB045141EA050130BD42
:100280005FEA4C0C404141EB0101013C28BFB1F554
:10029000801FE9D291F0000F04BF01460020B1FA9F
:1002A00081F308BF2033A3F10B03B3F120020CDA72
:1002B0000C3208DD02F1140CC2F10C0201FA0CF050
:1002C00021FA02F10CE002F11402D8BFC2F1200CB5
:1002D00001FA02F120FA0CFCDCBF41EA0C0190406B
:1002E000E41AA2BF01EB0451294330BD6FEA0404B4
:1002F0001F3C1CDA0C340EDC04F11404C4F120029F
:1003000020FA04F001FA02F340EA030021FA04F3B0
:1003100045EA030130BDC4F10C04C4F1200220FA07
:1003200002F001FA04F340EA0300294630BD21FA45
:1003300004F0294630BD94F0000F83F4801306BF0B
:1003400081F480110134013D4EE77FEA645C18BFFF
:100350007FEA655C29D094EA050F08BF90EA020F96
:1003600005D054EA000C04BF1946104630BD91EA8E
:10037000030F1EBF0021002030BD5FEA545C05D191
:100380004000494128BF41F0004130BD14F58004D0
:100390003CBF01F5801130BD01F0004545F0FE4144
:1003A00041F470014FF0000030BD7FEA645C1ABF79
:1003B000194610467FEA655C1CBF0B46024650EAB0
:1003C000013406BF52EA033591EA030F41F40021DC
:1003D00030BD00BF90F0000F04BF0021704730B562
:1003E0004FF4806404F132044FF000054FF0000137
:1003F00050E700BF90F0000F04BF0021704730B5F8
:100400004FF4806404F1320410F0004548BF4042CC
:100410004FF000013EE700BF42004FEAE2014FEA21
:1004200031014FEA02701FBF12F07F4393F07F4FFC
:1004300081F06051704732F07F4208BF704793F0FF
:100440007F4F04BF41F40021704730B54FF4607412
:1004500001F0004521F000411CE700BF50EA010215
:1004600008BF704730B54FF000050AE050EA0102BE
:1004700008BF704730B511F0004502D5404261EB2E
:1004800041014FF4806404F132045FEA915C3FF46F
:10049000D8AE4FF003025FEADC0C18BF03325FEA0C
:1004A000DC0C18BF033202EBDC02C2F1200300FABD
:1004B00003FC20FA02F001FA03FE40EA0E0021FAE2
:1004C00002F11444BDE600BF70B54FF0FF0C4CF4D0
:1004D000E06C1CEA11541DBF1CEA135594EA0C0F82
:1004E00095EA0C0F00F0DEF82C4481EA030621EABD
:1004F0004C5123EA4C5350EA013518BF52EA0335F8
:1005000041F4801143F4801338D0A0FB02CE4FF0A9
:100510000005E1FB02E506F00042E0FB03E54FF0D9
:100520000006E1FB03569CF0000F18BF4EF0010ED1
:10053000A4F1FF04B6F5007F64F5407404D25FEACD
:100540004E0E6D4146EB060642EAC62141EA555180
:100550004FEAC52040EA5E504FEACE2EB4F1FD0CC2
:1005600088BFBCF5E06F1ED8BEF1004F08BF5FEA40
:10057000500E50F1000041EB045170BD06F00046F2
:1005800046EA010140EA020081EA0301B4EB5C049F
:10059000C2BFD4EB0C0541EA045170BD41F4801197
:1005A0004FF0000E013C00F3AB8014F1360FDEBFBC
:1005B000002001F0004170BDC4F10004203C35DA98
:1005C0000C341BDC04F11404C4F1200500FA05F31B
:1005D00020FA04F001FA05F240EA020001F00042BC
:1005E00021F0004110EBD37021FA04F642EB060132
:1005F0005EEA430E08BF20EAD37070BDC4F10C045C
:10060000C4F1200500FA04F320FA05F001FA04F21F
:1006100040EA020001F0004110EBD37041F100010B
:100620005EEA430E08BF20EAD37070BDC4F1200516
:1006300000FA05F24EEA020E20FA04F301FA05F27E
:1006400043EA020321FA04F001F0004121FA04F226
:1006500020EA020000EBD3705EEA430E08BF20EAF6
:10066000D37070BD94F0000F0FD101F00046400030
:1006700041EB010111F4801F08BF013CF7D041EAB2
:10068000060195F0000F18BF704703F000465200B6
:1006900043EB030313F4801F08BF013DF7D043EA87
:1006A0000603704794EA0C0F0CEA135518BF95EA3D
:1006B0000C0F0CD050EA410618BF52EA4306D1D1C4
:1006C00081EA030101F000414FF0000070BD50EAE3
:1006D000410606BF1046194652EA430619D094EA6D
:1006E0000C0F02D150EA013613D195EA0C0F05D157
:1006F00052EA03361CBF104619460AD181EA0301AB
:1007000001F0004141F0FE4141F470014FF0000062
:1007100070BD41F0FE4141F4780170BD70B54FF0FD
:10072000FF0C4CF4E06C1CEA11541DBF1CEA13557D
:1007300094EA0C0F95EA0C0F00F0A7F8A4EB05045F
:1007400081EA030E52EA03354FEA013100F0888056
:100750004FEA03334FF0805545EA131343EA12631F
:100760004FEA022245EA111545EA10654FEA0026D4
:100770000EF000419D4208BF964244F1FD0404F58D
:10078000407402D25B084FEA3202B61A65EB0305E9
:100790005B084FEA32024FF480104FF4002CB6EBA6
:1007A000020E75EB030E22BFB61A754640EA0C0026
:1007B0005B084FEA3202B6EB020E75EB030E22BF66
:1007C000B61A754640EA5C005B084FEA3202B6EBA7
:1007D000020E75EB030E22BFB61A754640EA9C0066
:1007E0005B084FEA3202B6EB020E75EB030E22BF36
:1007F000B61A754640EADC0055EA060E18D04FEAF4
:10080000051545EA16754FEA06164FEAC30343EA93
:1008100052734FEAC2025FEA1C1CC0D111F4801F60
:100820000BD141EA00014FF000004FF0004CB6E759
:1008300011F4801F04BF01430020B4F1FD0C88BFF8
:10084000BCF5E06F3FF6AFAEB5EB030C04BFB6EB03
:10085000020C5FEA500C50F1000041EB045170BDF6
:100860000EF0004E4EEA113114EB5C04C2BFD4EB23
:100870000C0541EA045170BD41F480114FF0000EA7
:10088000013C90E645EA060E8DE60CEA135594EA23
:100890000C0F08BF95EA0C0F3FF43BAF94EA0C0F26
:1008A0000AD150EA01347FF434AF95EA0C0F7FF49B
:1008B00025AF104619462CE795EA0C0F06D152EAEF
:1008C00003353FF4FDAE1046194622E750EA4106D3
:1008D00018BF52EA43067FF4C5AE50EA41047FF4E4
:1008E0000DAF52EA43057FF4EBAE12E74A0011D296
:1008F00012F5001211D20DD56FF47873B3EB62527A
:100900000ED44FEAC12343F0004343EA505323FA85
:1009100002F070474FF00000704750EA013002D1FA
:100920004FF0FF3070474FF00000704780F00040FC
:1009300002E000BF81F0004142001FBF5FEA4103B7
:1009400092EA030F7FEA226C7FEA236C6AD04FEAB7
:100950001262D2EB1363C1BFD218414048404140FC
:10096000B8BF5B42192B88BF704710F0004F40F4AE
:10097000000020F07F4018BF404211F0004F41F4CA
:10098000000121F07F4118BF494292EA030F3FD096
:10099000A2F1010241FA03FC10EB0C00C3F12003A9
:1009A00001FA03F100F0004302D5494260EB400038
:1009B000B0F5000F13D3B0F1807F06D340084FEAA3
:1009C000310102F10102FE2A51D2B1F1004F40EB98
:1009D000C25008BF20F0010040EA03007047490000
:1009E00040EB0000013A28BFB0F5000FEDD2B0FA9D
:1009F00080FCACF1080CB2EB0C0200FA0CF0AABFC0
:100A000000EBC25052421843BCBFD040184370475D
:100A100092F0000F81F4000106BF80F40000013263
:100A2000013BB5E74FEA41037FEA226C18BF7FEA3A
:100A3000236C21D092EA030F04D092F0000F08BF7C
:100A40000846704790EA010F1CBF0020704712F063
:100A50007F4F04D1400028BF40F00040704712F1A2
:100A600000723CBF00F50000704700F0004343F007
:100A7000FE4040F4000070477FEA226216BF08463D
:100A80007FEA23630146420206BF5FEA412390EA00
:100A9000010F40F4800070474FF0000304E000BFF6
:100AA00010F0004348BF40425FEA000C08BF7047A7
:100AB00043F0964301464FF000001CE050EA01026B
:100AC00008BF70474FF000030AE000BF50EA010280
:100AD00008BF704711F0004302D5404261EB41016D
:100AE0005FEA010C02BF84460146002043F0B64392
:100AF00008BFA3F18053A3F50003BCFA8CF2083AB7
:100B0000A3EBC25310DB01FA02FC634400FA02FCBF
:100B1000C2F12002BCF1004F20FA02F243EB0200C6
:100B200008BF20F00100704702F1200201FA02FC28
:100B3000C2F1200250EA4C0021FA02F243EB02001B
:100B400008BF20EADC7070474FF0FF0C1CEAD0525F
:100B50001EBF1CEAD15392EA0C0F93EA0C0F6FD020
:100B60001A4480EA010C400218BF5FEA41211ED0FE
:100B70004FF0006343EA501043EA5111A0FB0131EA
:100B80000CF00040B1F5000F3EBF490041EAD371BF
:100B90005B0040EA010062F17F02FD2A1DD8B3F13B
:100BA000004F40EBC25008BF20F00100704790F0AA
:100BB000000F0CF0004C08BF49024CEA502040EAFC
:100BC00051207F3AC2BFD2F1FF0340EAC2507047C2
:100BD00040F400004FF00003013A5DDC12F1190F00
:100BE000DCBF00F000407047C2F10002410021FA72
:100BF00002F1C2F1200200FA02FC5FEA310040F18A
:100C0000000053EA4C0308BF20EADC70704792F002
:100C1000000F00F0004C02BF400010F4000F013A3A
:100C2000F9D040EA0C0093F0000F01F0004C02BF35
:100C3000490011F4000F013BF9D041EA0C018FE7A4
:100C40000CEAD15392EA0C0F18BF93EA0C0F0AD0AA
:100C500030F0004C18BF31F0004CD8D180EA0100D0
:100C600000F00040704790F0000F17BF90F0004F69
:100C7000084691F0000F91F0004F14D092EA0C0F4B
:100C800001D142020FD193EA0C0F03D14B0218BFDE
:100C9000084608D180EA010000F0004040F0FE4024
:100CA00040F40000704740F0FE4040F440007047C0
:100CB0004FF0FF0C1CEAD0521EBF1CEAD15392EA3F
:100CC0000C0F93EA0C0F69D0A2EB030280EA010C2F
:100CD00049024FEA402037D04FF0805343EA1111C8
:100CE00043EA10130CF000408B4238BF5B0042F126
:100CF0007D024FF4000C8B4224BF5B1A40EA0C00CB
:100D0000B3EB510F24BFA3EB510340EA5C00B3EBFC
:100D1000910F24BFA3EB910340EA9C00B3EBD10FEA
:100D200024BFA3EBD10340EADC001B0118BF5FEA3C
:100D30001C1CE0D1FD2A3FF650AF8B4240EBC25065
:100D400008BF20F0010070470CF0004C4CEA502026
:100D50007F32C2BFD2F1FF0340EAC250704740F475
:100D600000004FF00003013A37E792F0000F00F067
:100D7000004C02BF400010F4000F013AF9D040EAE5
:100D80000C0093F0000F01F0004C02BF490011F479
:100D9000000F013BF9D041EA0C0195E70CEAD15371
:100DA00092EA0C0F08D142027FF47DAF93EA0C0F58
:100DB0007FF470AF084676E793EA0C0F04D14B023C
:100DC0003FF44CAF08466EE730F0004C18BF31F0EE
:100DD000004CCAD130F000427FF45CAF31F00043E8
:100DE0007FF43CAF5FE700BF80B400AF144BDB681B
:100DF000134A23F08073D360114BDB68104A43F031
:100E00008073D3600F4B1B680E4A23F001031360FD
:100E10000C4B1B680B4A43F001031360094B002283
:100E20005A6000BF00BF00BF064B5B68002B01D0BB
:100E3000002300E001231846BD4680BC704700BF78
:100E4000F0ED00E0001000E080B584B000AF786005
:100E50000E4B5B68FB6003F0CDFA03460C4AA2FB25
:100E600003239B09BB607B68BA6802FB03F37B60CA
:100E700000BF064B5A68FB68D21A7B689A42F8D3C7
:100E800000BF00BF1037BD4680BD00BF001000E0AE
:100E9000D34D621080B483B000AF0346FB71FB7981
:100EA000002B01D10B4B0FE0FB79012B01D10A4B39
:100EB0000AE0FB79022B01D1084B05E0FB79032BFB
:100EC00001D1074B00E0002318460C37BD4680BC1B
:100ED000704700BF30F8FFFF00FEFFFFDAF6FFFFAC
:100EE0003DF4FFFF80B483B000AF0346FB71FB7994
:100EF000002B02D14FF4FA6312E0FB79012B02D1EF
:100F00004FF400730CE0FB79022B02D140F626135C
:100F100006E0FB79032B02D140F6C33300E0002347
:100F200018460C37BD4680BC7047000080B588B0BD
:100F300000AF07F10C0300221A605A609A60DA6071
:100F40000023FB770023BB77FFF74EFF0023FB77DF
:100F5000F1E00023BB776DE0FA7FB97F7A48134652
:100F6000DB009B1A0B4450F82330784A93420CD193
:100F7000774B9B69764A43F004039361744B9B69FA
:100F800003F00403BB60BB6830E0FA7FB97F6E48B2
:100F90001346DB009B1A0B4450F823306D4A9342F2
:100FA0000CD16B4B9B696A4A43F008039361684B11
:100FB0009B6903F008037B607B6817E0FA7FB97FC9
:100FC00061481346DB009B1A0B4450F82330624AF9
:100FD00093420BD15E4B9B695D4A43F010039361D2
:100FE0005B4B9B6903F010033B603B68FA7FB97F62
:100FF00055481346DB009B1A5B000B44083330F85E
:101000001330FB6001233B6100237B610223BB6142
:10101000FA7FB97F4C481346DB009B1A0B4450F80B
:10102000233007F10C021146184602F087FCBB7F03
:101030000133BB77BB7F032B8ED9FA7F4749134619
:101040005B001344DB000B44113300221A70FA7F5B
:10105000424913465B001344DB000B440F3300226C
:101060001A70FA7F3D4913465B001344DB000B44C2
:1010700000221A60FA7F394913465B001344DB00F3
:101080000B44043300221A60FA7F344913465B0094
:101090001344DB000B44083300221A60FA7F2F4907
:1010A00013465B001344DB000B440E3300221A701E
:1010B000FA7F2A4913465B001344DB000B441233CA
:1010C00000221A80FA7F20491346DB009B1A9B00FE
:1010D0000B441B331B78012B0AD0FA7F1A491346A5
:1010E000DB009B1A9B000B441B331B78002B0AD19F
:1010F000FA7F1A4913465B001344DB000B4410339C
:1011000004221A7014E0FA7F0F491346DB009B1A81
:101110009B000B441B331B78022B09D1FA7F0F492C
:1011200013465B001344DB000B44103308221A7093
:10113000FB7F0133FB77FB7F032B7FF60AAF00BFFA
:1011400000BF2037BD4680BD906000080008014008
:1011500000100240000C0140001001408C000020F3
:1011600080B58AB000AF786007F1140300221A60DE
:101170005A609A60DA6007F10C0300221A605A6024
:1011800000237B62FFF7D2FE4FF434737B627B68EF
:101190004FF080421A607B6863225A607B680022AD
:1011A0009A607B6A5A1E7B68DA607B6800221A614B
:1011B0007B6880229A61786803F0F0F94FF48053DD
:1011C0007B6107F114031946786803F035FD0023AD
:1011D000FB6000233B6107F10C031946786804F0BB
:1011E000C7F8786803F02AFA00BF2837BD4680BDEB
:1011F00090B585B000AF03460A46FB711346BB802D
:101200000023FB60BB883F2B7AD8FA79404913460C
:101210005B001344DB000B440C33BA881A80FA7964
:101220003C491346DB009B1A9B000B441B331B7885
:10123000022B0BD1FA7937491346DB009B1A9B002E
:101240000B4418331B885B00FB6009E0FA793149D5
:101250001346DB009B1A9B000B4418331B88FB6072
:10126000FB79002B02D0FB79012B0FD1BB881846EC
:10127000FFF712FC034628491846FFF765FC0346B2
:1012800026491846FFF714FD0346BB60FB79022B85
:1012900002D0FB79032B0FD1BB881846FFF7FCFB6C
:1012A00003461F491846FFF74FFC03461B491846E3
:1012B000FFF7FEFC0346BB60F868FFF7EDFB034653
:1012C000B9681846FFF740FC03461846FFF7A4F834
:1012D00002460B460CA1D1E90001FFF71FFA0246B6
:1012E0000B46FC7910461946FFF700FB02460849F9
:1012F00023465B002344DB000B4408331A6000E004
:1013000000BF1437BD4690BD00000000004CED400A
:101310008C000020906000089A99E94000007C420F
:101320000000404190B585B000AF0346FB71FA79EB
:10133000A1491346DB009B1A9B000B441A331B7810
:10134000002B40F0B480FA799B491346DB009B1ACE
:101350009B000B441B331B78002B30D10023FB7305
:1013600029E0FA79F97B94481346DB009B1A0B4479
:1013700050F82300FA79F97B8F4C1346DB009B1A57
:101380005B000B44083334F81310FA798B4C134686
:101390005B001344DB0023440F331B781A46FB7BAE
:1013A000874C9200224413441B781A4602F04AFCF0
:1013B000FB7B0133FB73FB7B032BD2D9BDE0FA79B6
:1013C0007D491346DB009B1A9B000B441B331B78A3
:1013D000012B30D10023BB7329E0FA79B97B764821
:1013E0001346DB009B1A0B4450F82300FA79B97BB3
:1013F000714C1346DB009B1A5B000B44083334F836
:101400001310FA796D4C13465B001344DB00234440
:101410000F331B781A46BB7B6A4C9200224413445C
:101420001B781A4602F00EFCBB7B0133BB73BB7BFF
:10143000032BD2D981E0FA795F491346DB009B1A6E
:101440009B000B441B331B78022B76D100237B734C
:1014500029E0FA79797B58481346DB009B1A0B4444
:1014600050F82300FA79797B534C1346DB009B1A22
:101470005B000B44083334F81310FA794F4C1346D1
:101480005B001344DB0023440F331B781A467B7B3D
:101490004D4C9200224413441B781A4602F0D2FBB2
:1014A0007B7B01337B737B7B032BD2D945E0FA79BD
:1014B00041491346DB009B1A9B000B441A331B78EF
:1014C000012B3AD1FA793C491346DB009B1A9B0069
:1014D0000B441B331B78022B2FD100233B7329E0D5
:1014E000FA79397B34481346DB009B1A0B4450F8D9
:1014F0002300FA79397B304C1346DB009B1A5B00E2
:101500000B44083334F81310FA792C4C13465B0063
:101510001344DB0023440F331B781A463B7B2B4CD0
:101520009200224413441B781A4602F08BFB3B7B4B
:1015300001333B733B7B032BD2D9FA791F49134606
:101540005B001344DB000B4411331B78012B3FD1AC
:10155000FA791A4913465B001344DB000B440F333E
:101560001B78002B12D1F979FA7914480B465B00ED
:101570000B44DB00034410331878104913465B001A
:101580001344DB000B440F3302461A70FA790B49FF
:1015900013465B001344DB000B440F331B78013B05
:1015A000D8B2064913465B001344DB000B440F33EB
:1015B00002461A7049E000BF906000088C000020CD
:1015C000000000201000002020000020400000202B
:1015D000FA79204913465B001344DB000B441133B6
:1015E0001B78002B31D1FA791A4913465B0013445A
:1015F000DB000B440F331B780133D8B21549134677
:101600005B001344DB000B440F3302461A70FA7977
:10161000104913465B001344DB000B440F33197869
:10162000FA790C4813465B001344DB000344103383
:101630001B78994209D1FA79064913465B00134495
:10164000DB000B440F3300221A7000BF1437BD4675
:1016500090BD00BF8C00002080B586B000AF03466F
:101660003960FB711346BB713B68002B7CD0FA7963
:10167000434913465B001344DB000B4415331B78CE
:10168000002B54D1FA793E4913465B001344DB002A
:101690000B441233B3F900303B61FB791846FFF776
:1016A000F9FBF860FB791846FFF71CFCB860FA7983
:1016B000334913465B001344DB000B440E331B78A5
:1016C000002B15D0FA792E4913465B001344DB003A
:1016D0000B4414331B78BA799A4247D0FA792849D7
:1016E00013465B001344DB000B440E3300221A70D8
:1016F00000237B61BB79002B08D13A69BB689A4211
:1017000036DABA683B69D31A7B6107E03A69FB684D
:101710009A422FDD3A69FB68D31A7B613A687B698C
:101720009A4201D97B693B603B68002B24D0FA794F
:10173000134913465B001344DB000B441968FA7924
:101740003B6819440E4813465B001344DB00034416
:101750001960FA790A4913465B001344DB000B4415
:101760001133BA791A7008E000BF06E000BF04E048
:1017700000BF02E000BF00E000BF1837BD4680BDDB
:101780008C00002080B483B000AF0346FB71FA796F
:10179000064913465B001344DB000B4400221A6029
:1017A00000BF0C37BD4680BC704700BF8C000020D6
:1017B00090B587B000AF78600023FB757B681B682D
:1017C000B3F1804F40F020810023FB7518E1FA7DD2
:1017D0008F4913465B001344DB000B440433196844
:1017E000FA7D8B4813465B001344DB000344083347
:1017F0001B689942C0F0C480FA7D854913465B009E
:101800001344DB000B440E331B78012B00F0B8802F
:10181000FA7D7F4913465B001344DB000B441B68D1
:10182000002B00F0AD80FA7D794913465B0013442C
:10183000DB000B4415331B78002B40F08280FB7DCE
:101840001846FFF727FB3861FB7D1846FFF74AFB78
:10185000F860FA7D6E4913465B001344DB000B44CD
:101860001233B3F900301846FA7D694913465B001C
:101870001344DB000B4411331B78002B01D10123EF
:1018800001E04FF0FF330344BB60BA68FB689A4243
:1018900003DCBA683B699A4247DAFA7D5C49134631
:1018A0005B001344DB000B4400221A60FA7D5849A8
:1018B00013465B001344DB000B440E3301221A7005
:1018C000F97DFA7D52480B465B000B44DB00034474
:1018D000113318784E4913465B001344DB000B4468
:1018E000143302461A700023BB751AE0FA7DB97DE5
:1018F00048481346DB009B1A0B4450F82300FA7D3E
:10190000B97D444C1346DB009B1A5B000B44083343
:1019100034F813300022194602F094F9BB7D0133EC
:10192000BB75BB7D032BE1D967E0FA7DBB6818B2BC
:10193000374913465B001344DB000B441233024665
:101940001A80FB7D1846FFF7EDFCFA7D30491346FF
:101950005B001344DB000B441B68591E2C481346E4
:101960005B001344DB0003441960FA7D28491346E9
:101970005B001344DB000B44043300221A603CE09C
:10198000FA7D234913465B001344DB000B44043308
:101990001B68591C1E4813465B001344DB000344BC
:1019A00004331960FA7D1A4913465B001344DB00C7
:1019B0000B441B68002B20D100237B751AE0FA7DB5
:1019C000797D14481346DB009B1A0B4450F8230022
:1019D000FA7D797D0F4C1346DB009B1A5B000B44AC
:1019E000083334F813300022194602F02BF97B7DBE
:1019F00001337B757B7D032BE1D9FB7D0133FB75C7
:101A0000FB7D032B7FF6E3AE00BF1C37BD4690BDC8
:101A10008C0000209060000880B582B000AF0023E9
:101A2000FB714F4B01225A7520210020FFF7E0FB8C
:101A300000224FF4FA610020FFF70EFE00BF484B72
:101A40001B68002BFBD14FF4FA70FFF7FDF9012260
:101A500041F2B0210020FFF7FFFD00BF404B1B68A3
:101A6000002BFBD14FF4FA70FFF7EEF900224FF490
:101A7000FA610020FFF7F0FD00BF394B1B68002B17
:101A8000FBD14FF4FA70FFF7DFF9354B012283F8F1
:101A90002D2020210120FFF7ABFB00224FF4007125
:101AA0000120FFF7D9FD00BF2D4B9B69002BFBD117
:101AB0004FF4FA70FFF7C8F901224FF48261012058
:101AC000FFF7CAFD00BF264B9B69002BFBD14FF4EB
:101AD000FA70FFF7B9F900224FF400710120FFF707
:101AE000BBFD00BF1E4B9B69002BFBD14FF4FA706E
:101AF000FFF7AAF90023FB7129E0FA791849134688
:101B00005B001344DB000B440F3300221A70FA7998
:101B1000134913465B001344DB000B4400221A6098
:101B2000FA790F4913465B001344DB000B44123370
:101B300000221A80FA790A4913465B001344DB003D
:101B40000B44153300221A70FB790133FB71FB79CA
:101B5000032BD2D900BF00BF0837BD4680BD00BFF0
:101B60008C00002080B500AF4C4B012283F845204B
:101B700020210220FFF73CFB002240F62611022024
:101B8000FFF76AFD00BF454B1B6B002BFBD14FF4E9
:101B9000FA70FFF759F9012241F2B0210220FFF754
:101BA0005BFD00BF3D4B1B6B002BFBD14FF4FA706C
:101BB000FFF74AF9394B012283F85D2020210320E9
:101BC000FFF716FB002240F6C3310320FFF744FD68
:101BD00000BF324B9B6C002BFBD14FF4FA70FFF728
:101BE00033F9012241F64E010320FFF735FD00BF16
:101BF0002A4B9B6C002BFBD14FF44870FFF724F964
:101C000000224FF4D0710320FFF726FD00BF234BC5
:101C10009B6C002BFBD140F6B830FFF715F9002282
:101C20004FF416710220FFF717FD00BF1B4B1B6B13
:101C3000002BFBD14FF44870FFF706F9002240F269
:101C4000F1610320FFF708FD00BF144B9B6C002BD4
:101C5000FBD140F6B830FFF7F7F8002240F25921E7
:101C60000220FFF7F9FC00BF0C4B1B6B002BFBD1D4
:101C70004FF44870FFF7E8F8002240F227210320D4
:101C8000FFF7EAFC00BF054B9B6C002BFBD140F635
:101C9000B830FFF7D9F800BF80BD00BF8C0000202E
:101CA00080B483B000AF0346FB71FB79032B01D9ED
:101CB000002309E0FA79074913465B001344DB006F
:101CC0000B441233B3F9003018460C37BD4680BCC4
:101CD000704700BF8C00002080B483B000AF034683
:101CE0000A46FB711346BB71BB79202B04D13D4BD7
:101CF00000221A700B236FE0BB79402B04D1394BC3
:101D000000221A700C2367E0FB79012B04D1354BBC
:101D100000221A700E235FE0BB79802B04D1314B77
:101D200000221A700F2357E0FB79042B04D12D4BAE
:101D300000221A7011234FE0FB79022B04D1294BAA
:101D400000221A70122347E0FB79002B02D0BB79E6
:101D5000002B04D1234B01221A7000233CE0BB79F5
:101D60000C2B01D1052337E0BB79142B01D10623BD
:101D700032E0BB790A2B01D107232DE0BB79122B6E
:101D800001D1082328E0BB79042B01D1012323E0F2
:101D9000BB79022B01D102231EE0BB79082B01D1B4
:101DA000032319E0BB79102B01D1042314E0BB7984
:101DB0000F2B01D109230FE0BB79032B01D118238D
:101DC0000AE0BB79052B01D1192305E0BB79072B6C
:101DD00001D11A2300E01B2318460C37BD4680BCF6
:101DE000704700BFBE02002080B500AF044B012247
:101DF0001A70FFF711FE024B00221A7000BF80BD5F
:101E0000AC02002080B500AF044B01221A70FFF72E
:101E1000A9FE024B00221A7000BF80BDAC02002058
:101E200090B482B000AF0446084611461A462346D5
:101E3000FB710346BB710B467B7113463B71FA790C
:101E4000BB791344DAB27B791344DAB23B79134499
:101E5000DAB23B7C1344DBB218460837BD4690BC6F
:101E60007047000090B583B002AF01F021F900F097
:101E70002DFA00F035FC00F009FC00F06DFA00F0DE
:101E8000A3FA00F0EDFA00F0D7FB00F05FFBC048CA
:101E9000FFF766F90021BF4802F07AFC0C21BE482A
:101EA00002F076FC0122BD49BD4803F056FB4FF419
:101EB000FA6001F05FF900224FF40051B94801F0D7
:101EC000C1FEFFF79FFFB84B1B78012BFBD1B74B2F
:101ED0005A78B74B1A70B54B9A78B64B1A70B34B09
:101EE000DA78B54B1A70B14B1A79B44B1A70AF4B04
:101EF0005A79B34B1A70AD4B9A79B24B1A70AD4BFD
:101F00001878AD4B1978AD4B1A78AD4B1B7801247E
:101F10000094FFF785FF03461A46AA4B1B789A42A6
:101F200040F0C681A24B1B78012B40F0B181072203
:101F30009E49A54803F0DCFA9E4B1B789E4A127816
:101F400011461846FFF7C8FE03461B2B00F29F817F
:101F500001A252F823F000BF77210008C91F000832
:101F6000ED1F000811200008352000085920000846
:101F70009F200008E52000082B210008712100089F
:101F80008F220008EB2100080B2200088F22000896
:101F90002B2200084B2200088F2200088F22000805
:101FA0008F2200088F2200088F2200088F2200084D
:101FB0008F2200088F2200086B2200087722000879
:101FC00083220008D1210008804B01221A707B4B2C
:101FD0001B7819460020FFF70BF97C4B1B781A463B
:101FE0004FF47A610020FFF737FB51E1774B002275
:101FF0001A70724B1B7819460020FFF7F9F8734BE3
:102000001B781A464FF47A610020FFF725FB3FE169
:102010006E4B01221A706A4B1B7819460120FFF79C
:10202000E7F86A4B1B781A464FF480610120FFF7EE
:1020300013FB2DE1654B00221A70614B1B7819468A
:102040000120FFF7D5F8614B1B781A464FF48061E9
:102050000120FFF701FB1BE15C4B01221A70574B7B
:102060001B7819460020FFF7C3F8584B1B781A4617
:102070004FF47A610020FFF7EFFA544B00221A70F8
:102080004F4B1B7819460120FFF7B2F84F4B1B78D6
:102090001A464FF480610120FFF7DEFAF8E04B4B5F
:1020A00001221A70454B1B7819460020FFF7A0F853
:1020B000464B1B781A464FF47A610020FFF7CCFAA2
:1020C000424B01221A703E4B1B7819460120FFF744
:1020D0008FF83E4B1B781A464FF480610120FFF7C2
:1020E000BBFAD5E0394B00221A70344B1B781946E5
:1020F0000020FFF77DF8354B1B781A464FF47A61C4
:102100000020FFF7A9FA314B00221A702C4B1B78E4
:1021100019460120FFF76CF82C4B1B781A464FF438
:1021200080610120FFF798FAB2E0284B00221A7074
:10213000224B1B7819460020FFF75AF8234B1B78D7
:102140001A464FF47A610020FFF786FA1F4B0122EE
:102150001A701B4B1B7819460120FFF749F81B4BDF
:102160001B781A464FF480610120FFF775FA8FE063
:10217000FFF73AFE8CE00020FFF704FB0120FFF799
:1021800001FB0220FFF7FEFA0320FFF7FBFA7FE0D6
:10219000440100208C010020D4010020AD02002069
:1021A0006402002000100140AF020020B0020020B5
:1021B000B7020020B8020020B9020020BA020020B5
:1021C000BB020020BC0200201C020020BD02002037
:1021D0000020FFF7D7FA0120FFF7D4FA0220FFF71B
:1021E000D1FA0320FFF7CEFA52E0334B01221A70E6
:1021F0003F210320FEF7FCFF2F4B1B781A4642F2CB
:1022000010710320FFF728FA42E02B4B00221A70CE
:102210003F210320FEF7ECFF274B1B781A4642F2C2
:1022200010710320FFF718FA32E0234B01221A70D5
:102230003F210220FEF7DCFF1F4B1B781A4642F2BB
:1022400010710220FFF708FA22E01B4B00221A70DF
:102250003F210220FEF7CCFF174B1B781A4642F2B3
:1022600010710220FFF7F8F912E0144B1B781846A2
:1022700000F0DAFB0CE0114B1B78184600F00CFC68
:1022800006E00E4B1B78184600F024FC00E000BF6F
:102290000B4B1B78AF2B02D10A4B01221A70084B53
:1022A0001B78AE2B04D1C8214FF4FA7000F076FCF5
:1022B000054B00221A7006E6BD020020BB0200207A
:1022C000B7020020BE020020AF02002080B590B00F
:1022D00000AF07F1180328220021184603F0A0FEE2
:1022E0003B1D00221A605A609A60DA601A6101236D
:1022F000BB614FF48033FB6100233B620123BB626F
:1023000002237B634FF48033BB634FF4E013FB6322
:1023100007F11803184601F0ADFC0346002B01D06D
:1023200000F00AFB0F237B600223BB600023FB60ED
:102330004FF480633B6100237B613B1D0221184603
:1023400001F01AFF0346002B01D000F0F5FA00BFA0
:102350004037BD4680BD000080B500AF184B194A1C
:102360001A60174B4FF482725A60154B00229A6024
:10237000134B4FF40062DA60114B00221A61104BCC
:1023800000225A610E4B4FF400729A610C4B2822C6
:10239000DA610B4B00221A62094B00225A62084B89
:1023A00000229A62064B0A22DA62054802F072F8AD
:1023B0000346002B01D000F0BFFA00BF80BD00BF74
:1023C000EC0000200038004080B586B000AF07F177
:1023D000080300221A605A609A60DA603B460022C5
:1023E0001A605A601D4B4FF080421A601B4B472207
:1023F0005A601A4B00229A60184B44F61F62DA604A
:10240000164B00221A61154B00229A61134802F004
:10241000C5F80346002B01D000F08EFA4FF480532C
:10242000BB6007F1080319460C4802F005FC03469F
:10243000002B01D000F080FA00233B6000237B607A
:102440003B461946054802F093FF0346002B01D096
:1024500000F072FA00BF1837BD4680BD440100206D
:1024600080B58EB000AF07F1280300221A605A60D1
:102470009A60DA6007F1200300221A605A603B1D5F
:1024800000221A605A609A60DA601A615A619A6191
:102490002C4B2D4A1A602B4B47225A60294B0022A5
:1024A0009A60284B44F61F62DA60264B00221A61BC
:1024B000244B00229A61234802F070F80346002B57
:1024C00001D000F039FA4FF48053BB6207F12803C2
:1024D00019461C4802F0B0FB0346002B01D000F067
:1024E0002BFA184802F0FCF80346002B01D000F04C
:1024F00023FA00233B6200237B6207F12003194685
:10250000104802F035FF0346002B01D000F014FA0A
:1025100060237B600023BB600023FB6000237B61A2
:102520003B1D00221946074802F0C4FA0346002B5F
:1025300001D000F001FA034800F038FC00BF383742
:10254000BD4680BD8C0100200004004080B58EB0E7
:1025500000AF07F1280300221A605A609A60DA601F
:1025600007F1200300221A605A603B1D00221A6006
:102570005A609A60DA601A615A619A612C4B2D4A4E
:102580001A602B4B47225A60294B00229A60284B35
:1025900044F61F62DA60264B00221A61244B0022A7
:1025A0009A61234801F0FAFF0346002B01D000F0A6
:1025B000C3F94FF48053BB6207F1280319461C4846
:1025C00002F03AFB0346002B01D000F0B5F91848A1
:1025D00002F086F80346002B01D000F0ADF900238D
:1025E0003B6200237B6207F120031946104802F08A
:1025F000BFFE0346002B01D000F09EF960237B60F4
:102600000023BB600023FB6000237B613B1D0C2289
:102610001946074802F04EFA0346002B01D000F09D
:102620008BF9034800F0C2FB00BF3837BD4680BDC0
:10263000D40100200008004080B500AF114B124AC1
:102640001A60104B4FF416525A600E4B00229A60DB
:102650000C4B0022DA600B4B00221A61094B0C2252
:102660005A61084B00229A61064B0022DA61054844
:1026700002F0EEFE0346002B01D000F05DF900BF32
:1026800080BD00BF1C0200200038014080B500AFB3
:10269000114B124A1A60104B4FF416525A600E4BEF
:1026A00000229A600C4B0022DA600B4B00221A6168
:1026B000094B0C225A61084B00229A61064B0022FA
:1026C000DA61054802F0C4FE0346002B01D000F099
:1026D00033F900BF80BD00BF640200200048004005
:1026E00080B588B000AF07F1100300221A605A606D
:1026F0009A60DA604F4B9B694E4A43F01003936136
:102700004C4B9B6903F01003FB60FB68494B9B69D2
:10271000484A43F020039361464B9B6903F0200332
:10272000BB60BB68434B9B69424A43F0040393611F
:10273000404B9B6903F004037B607B683D4B9B69C6
:102740003C4A43F0080393613A4B9B6903F008034A
:102750003B603B6800224FF40051374801F072FAA9
:10276000002248F6FF71354801F06CFA002241F270
:102770003B11334801F066FA4FF400533B610123EB
:102780007B610023BB610223FB6107F11003194643
:10279000294801F0D3F848F6FF733B6101237B61C0
:1027A0000023BB610223FB6107F110031946234894
:1027B00001F0C4F841F23B133B6101237B6100232C
:1027C000BB610223FB6107F1100319461C4801F0AD
:1027D000B5F84FF4A0533B6100237B610023BB613C
:1027E00007F110031946154801F0A8F84FF46043AB
:1027F0003B6102237B610323FB6107F11003194650
:102800000F4801F09BF84FF480533B6101237B613B
:102810000323FB6107F110031946094801F08EF804
:1028200001224FF48051064801F00CFA00BF203716
:10283000BD4680BD0010024000100140000801406C
:10284000000C014080B582B000AF78600B467B8001
:102850007B681B681D4A934235D11D4B1B78DBB248
:10286000002B0BD01B4B00221A701B4B00221A703E
:1028700001221A491A4802F070FE24E0174B1B7817
:10288000FF2B06D1134B1B78002B02D0114B0022DB
:102890001A70104B1B785A1CD1B20E4A11701A468E
:1028A0000E4B19780F4B99540A4B1B78062B05D900
:1028B000084B00221A70084B01221A7001220749A6
:1028C000074802F04AFE0837BD4680BD0048004078
:1028D000AC020020AE020020AF020020AD020020BA
:1028E00064020020B002002080B582B000AF7860A2
:1028F0007B681B68054A934204D1002202210448E8
:1029000001F0A0F900BF0837BD4680BD0048004077
:10291000000C014080B582B000AF78607B681B6816
:10292000B3F1804F02D10348FEF742FF00BF0837E2
:10293000BD4680BD4401002080B400AF72B600BF28
:1029400000BFFDE72DE9B04F8AB000AF00F066FE92
:1029500000237B60304BFB6001233B613A463B1D0B
:102960001146184600F042FF2C4BFB61FB69002228
:102970009A46934652465B462749022000F0DEFD08
:10298000274B7B6200233B623CE026493A6A1346B0
:102990005B0013445B000B44B3F900301904214879
:1029A0003A6A13465B0013445B0003440233B3F9F5
:1029B00000300B43BB61BB6900221C461546224612
:1029C0002B46796A022000F0B9FD7B6A04337B62F2
:1029D00014493A6A13465B0013445B000B4404330A
:1029E0001B787B617B6900229846914642464B46A4
:1029F000796A022000F0A2FD7B6A04337B623B6AA5
:102A000001333B623B6A3F2BBFDD00F02DFE00BF70
:102A10002837BD46BDE8B08F00FC00087856341258
:102A200004FC0008C002002080B582B000AF03465D
:102A3000FB71FB793F2B29D80020FFF731F90346C2
:102A4000FA7918B2134913465B0013445B000B4438
:102A500002461A800120FFF723F90346FA7918B2DB
:102A60000C4913465B0013445B000B4402330246DF
:102A70001A80FA79074913465B0013445B000B4444
:102A8000043301221A70FFF75DFF00E000BF083732
:102A9000BD4680BDC002002080B582B000AF0346B5
:102AA000FB71FB793F2B0ED8FA7913465B00134478
:102AB0005B00074A134406220021184603F0B0FACF
:102AC000FFF740FF00E000BF0837BD4680BD00BFF4
:102AD000C002002080B586B000AF0346FB71FB79D1
:102AE0003F2B52D8FA792C4913465B0013445B0004
:102AF0000B4404331B78002B49D00020FFF7D0F89B
:102B000078610120FFF7CCF83861FA792249134641
:102B10005B0013445B000B44B3F900301A467B6939
:102B2000D31AFB60FA791C4913465B0013445B001F
:102B30000B440233B3F900301A463B69D31ABB6029
:102B4000FB68002B0ED0FB68002BB8BF5B42194618
:102B5000FB68002BD4BF01230023DBB21A46002000
:102B6000FEF77AFDBB68002B12D0BB68002BB8BF04
:102B70005B421946BB68002BD4BF01230023DBB2A4
:102B80001A460120FEF768FD02E000BF00E000BF2A
:102B90001837BD4680BD00BFC002002080B586B09A
:102BA00000AF786039600020FFF77AF87861012083
:102BB000FFF776F838617A687B69D31AFB603A6868
:102BC0003B69D31ABB60FB68002B0ED0FB68002B5F
:102BD000B8BF5B421946FB68002BD4BF012300231A
:102BE000DBB21A460020FEF737FDBB68002B0ED083
:102BF000BB68002BB8BF5B421946BB68002BD4BF33
:102C000001230023DBB21A460120FEF725FD00BF99
:102C10001837BD4680BD000080B485B000AF154BAD
:102C20009B69144A43F001039361124B9B6903F0C3
:102C30000103BB60BB680F4BDB690E4A43F0805356
:102C4000D3610C4BDB6903F080537B607B680A4BDC
:102C50005B68FB60FB6823F0E063FB60FB6843F0AC
:102C60000073FB60044AFB68536000BF1437BD4625
:102C700080BC7047001002400000014080B588B061
:102C800000AF786007F1100300221A605A609A6062
:102C9000DA607B681B681C4A934231D11B4BDB69AD
:102CA0001A4A43F48043D361184BDB6903F4804331
:102CB000FB60FB68154B9B69144A43F00803936162
:102CC000124B9B6903F00803BB60BB684FF42043C1
:102CD0003B6102237B610323FB6107F1100319466B
:102CE0000B4800F02BFE4FF480433B6100237B61D7
:102CF0000023BB6107F110031946054800F01EFED2
:102D000000BF2037BD4680BD0038004000100240A3
:102D1000000C014080B586B000AF78607B681B680E
:102D2000B3F1804F14D11E4BDB691D4A43F0010300
:102D3000D3611B4BDB6903F001037B617B690022DC
:102D400000211C2000F011FB1C2000F02AFB22E0D7
:102D50007B681B68134A93420CD1114BDB69104A04
:102D600043F00203D3610E4BDB6903F002033B61C6
:102D70003B6910E07B681B680B4A93420BD1084B00
:102D8000DB69074A43F00403D361054BDB6903F0B9
:102D90000403FB60FB6800BF1837BD4680BD00BF61
:102DA00000100240000400400008004080B58AB0D6
:102DB00000AF786007F1140300221A605A609A602D
:102DC000DA607B681B68284A93422AD1274B9B69AB
:102DD000264A43F008039361244B9B6903F00803E0
:102DE0003B613B6910237B610223BB6102233B6291
:102DF00007F1140319461E4800F0A0FD1D4B5B6847
:102E00007B627B6A23F440637B627B6A43F0E0630E
:102E10007B627B6A43F400637B62164A7B6A536081
:102E20001DE07B681B68144A934218D10F4B9B69C5
:102E30000E4A43F0080393610C4B9B6903F00803AF
:102E4000FB60FB684FF400737B610223BB610223CC
:102E50003B6207F114031946054800F06FFD00BFFF
:102E60002837BD4680BD00BF00040040001002406E
:102E7000000C0140000001400008004080B58CB00B
:102E800000AF786007F11C0300221A605A609A6054
:102E9000DA607B681B68464A934246D1454B9B6982
:102EA000444A43F480439361424B9B6903F480435B
:102EB000BB61BB693F4B9B693E4A43F0080393618A
:102EC0003C4B9B6903F008037B617B694023FB61FA
:102ED00002233B620323BB6207F11C0319463648F9
:102EE00000F02CFD8023FB6100233B6200237B620A
:102EF00007F11C031946304800F020FD2F4B5B689A
:102F0000FB62FB6A43F0E063FB62FB6A43F004038D
:102F1000FB622A4AFB6A536000220021252000F050
:102F200024FA252000F03DFA3EE07B681B68244A25
:102F3000934239D11F4BDB691E4A43F48023D3618E
:102F40001C4BDB6903F480233B613B69194B9B6994
:102F5000184A43F008039361164B9B6903F008037A
:102F6000FB60FB684FF48063FB6102233B62032339
:102F7000BB6207F11C0319460F4800F0DFFC4FF459
:102F80000063FB6100233B6200237B6207F11C03AB
:102F90001946094800F0D2FC00220021272000F049
:102FA000E4F9272000F0FDF900BF3037BD4680BDB1
:102FB0000038014000100240000C014000000140B8
:102FC0000048004080B400AF00BFFDE780B400AF10
:102FD00000BFFDE780B400AF00BFFDE780B400AFE5
:102FE00000BFFDE780B400AF00BFFDE780B400AFD5
:102FF00000BFBD4680BC704780B400AF00BFBD4677
:1030000080BC704780B400AF00BFBD4680BC704735
:1030100080B500AF00F092F800BF80BD80B500AF72
:10302000024801F057FC00BF80BD00BF44010020F2
:1030300080B500AF024802F0EDFA00BF80BD00BFCE
:103040001C02002080B500AF024802F0E3FA00BF86
:1030500080BD00BF6402002080B400AF00BFBD4649
:1030600080BC7047FFF7F8FF0B480C490C4A00235F
:1030700002E0D458C4500433C4188C42F9D3094A2E
:10308000094C002301E013600432A242FBD302F09A
:10309000CFFFFEF7E7FE7047000000206C00002025
:1030A000346100087000002068040020FEE7000082
:1030B00080B500AF084B1B68074A43F0100313604C
:1030C000032000F047F90F2000F008F8FFF7A4FDF7
:1030D0000023184680BD00BF0020024080B582B0AA
:1030E00000AF7860124B1A68124B1B7819464FF4E8
:1030F0007A73B3FBF1F3B2FBF3F3184600F05FF918
:103100000346002B01D001230EE07B680F2B0AD869
:10311000002279684FF0FF3000F027F9064A7B68FB
:103120001360002300E0012318460837BD4680BD28
:1031300060000020680000206400002080B400AF20
:10314000054B1B781A46054B1B681344034A136052
:1031500000BFBD4680BC70476800002040040020CE
:1031600080B400AF024B1B681846BD4680BC704758
:103170004004002080B584B000AF7860FFF7F0FF16
:10318000B8607B68FB60FB68B3F1FF3F05D00A4B7A
:103190001B781A46FB681344FB6000BFFFF7E0FF93
:1031A0000246BB68D31AFA689A42F7D800BF00BF3C
:1031B0001037BD4680BD00BF6800002080B485B0D8
:1031C00000AF78607B6803F00703FB600C4BDB68A3
:1031D000BB60BA684FF6FF031340BB60FB681A027E
:1031E000BB68134343F0BF6343F40033BB60044A3E
:1031F000BB68D36000BF1437BD4680BC704700BFBA
:1032000000ED00E080B400AF044BDB681B0A03F064
:1032100007031846BD4680BC704700BF00ED00E0C4
:1032200080B483B000AF0346FB7197F90730002BE1
:103230000BDBFB7903F01F02064997F907305B09A6
:10324000012000FA02F241F8232000BF0C37BD46EE
:1032500080BC704700E100E080B483B000AF03465B
:103260003960FB7197F90730002B0ADB3B68DAB253
:103270000C4997F907301201D2B20B4483F80023AE
:103280000AE03B68DAB20849FB7903F00F03043B1C
:103290001201D2B20B441A7600BF0C37BD4680BC77
:1032A000704700BF00E100E000ED00E080B489B0AD
:1032B00000AFF860B9607A60FB6803F00703FB6158
:1032C000FB69C3F10703042B28BF0423BB61FB691F
:1032D0000433062B02D9FB69033B00E000237B612A
:1032E0004FF0FF32BB6902FA03F3DA43BB681A40BE
:1032F0007B699A404FF0FF317B6901FA03F3D943B0
:103300007B680B40134318462437BD4680BC70478A
:1033100080B582B000AF78607B68013BB3F1807FFD
:1033200001D301230FE00A4A7B68013B53600F2160
:103330004FF0FF30FFF790FF054B00229A60044BDF
:1033400007221A60002318460837BD4680BD00BF1B
:1033500010E000E080B582B000AF78607868FFF7D9
:103360002DFF00BF0837BD4680BD80B586B000AFD9
:103370000346B9607A60FB7300237B61FFF742FF6D
:1033800078617A68B9687869FFF790FF024697F923
:103390000F3011461846FFF75FFF00BF1837BD46D4
:1033A00080BD80B582B000AF0346FB7197F907304E
:1033B0001846FFF735FF00BF0837BD4680BD80B512
:1033C00082B000AF78607868FFF7A2FF0346184626
:1033D0000837BD4680BD80B485B000AF786000235B
:1033E000FB737B6893F82130DBB2022B08D07B683B
:1033F00004229A637B68002283F82020012320E0C6
:103400007B681B681A687B681B6822F00E021A60D2
:103410007B681B681A687B681B6822F001021A60CF
:103420007B681A6C7B68DB6B012101FA02F25A603F
:103430007B68012283F821207B68002283F820200A
:10344000FB7B18461437BD4680BC704780B584B0FE
:1034500000AF78600023FB737B6893F82130DBB208
:10346000022B05D07B6804229A630123FB7351E091
:103470007B681B681A687B681B6822F00E021A6062
:103480007B681B681A687B681B6822F001021A605F
:103490007B681B68224A934229D07B681B68214ABB
:1034A000934222D07B681B681F4A93421AD07B68E4
:1034B0001B681E4A934212D07B681B681C4A9342C9
:1034C0000AD07B681B681B4A934202D14FF48013D9
:1034D0000EE04FF080730BE04FF4803308E04FF4C0
:1034E000805305E04FF4807302E0102300E00123D5
:1034F000114A53607B68012283F821207B680022F7
:1035000083F820207B685B6B002B03D07B685B6BB0
:1035100078689847FB7B18461037BD4680BD00BFD2
:10352000080002401C0002403000024044000240FB
:10353000580002406C00024000000240F0B587B025
:1035400000AFF860B960C7E900230123FB750023D1
:10355000BB7500237B752F4B1B7E012B01D10223F2
:1035600054E02C4B01221A764CF2503000F0A8F8AF
:103570000346FB75FB7D002B44D1FB68012B02D178
:1035800001237B7507E0FB68022B02D102237B75C8
:1035900001E004237B750023BB752DE0BB7D5A0041
:1035A000BB6802EB030CBB7D1901D7E90023C1F115
:1035B0002006A1F1200022FA01F403FA06F63443B2
:1035C00023FA00F0044323FA01F5A3B2194660463A
:1035D00000F05AF84CF2503000F072F80346FB75D8
:1035E0000D4B1B690C4A23F001031361FB7D002B7B
:1035F00007D1BB7D0133BB75BA7D7B7D9A42CDD3AC
:1036000000E000BF034B00221A76FB7D18461C37F2
:10361000BD46F0BD480400200020024080B483B0C5
:1036200000AF0023FB710D4B1B6903F08003002BDF
:103630000DD00A4B0A4A5A60084B0A4A5A60074B97
:103640001B6903F08003002B01D00123FB71FB7980
:1036500018460C37BD4680BC704700BF00200240B2
:1036600023016745AB89EFCD80B400AF054B1B69E3
:10367000044A43F08003136100231846BD4680BC12
:10368000704700BF0020024080B483B000AF786074
:103690000B467B80084B0022DA61084B1B69074A06
:1036A00043F0010313617B687A881A8000BF0C37EE
:1036B000BD4680BC704700BF480400200020024087
:1036C00080B584B000AF7860FFF74AFDF86010E085
:1036D0007B68B3F1FF3F0CD07B68002B07D0FFF76E
:1036E0003FFD0246FB68D31A7A689A4201D203234F
:1036F00025E0154BDB6803F00103002BE8D1124BEA
:10370000DB6803F02003002B02D00F4B2022DA608D
:103710000D4BDB6803F01003002B0BD10A4BDB6968
:1037200003F00103002B05D1074BDB6803F0040312
:10373000002B03D000F00AF8012300E00023184614
:103740001037BD4680BD00BF0020024080B483B06A
:1037500000AF00237B60234BDB6803F01003002BDA
:1037600009D0214BDB6943F002031F4AD3617B6818
:1037700043F010037B601B4BDB6803F00403002B5A
:1037800009D0194BDB6943F00103174AD3617B6809
:1037900043F004037B60134BDB6903F00103002B50
:1037A0000BD0114BDB6943F004030F4AD3610D4B7F
:1037B000DB690C4A23F00103D3617B6840F20112FC
:1037C000934206D1074BDB69064A23F00103D3611C
:1037D00002E0044A7B68D36000BF0C37BD4680BC62
:1037E000704700BF002002404804002080B584B02C
:1037F00000AF786039600123FB730023BB602F4B5F
:103800001B7E012B01D1022353E02C4B01221A769F
:103810007B681B68022B16D14CF25030FFF750FF2B
:103820000346002B41D1012000F04CF84CF25030FF
:10383000FFF746FF0346FB73214B1B69204A23F029
:103840000403136131E04CF25030FFF739FF0346B7
:10385000002B2AD13B684FF0FF321A607B689B68CF
:10386000BB6019E0B86800F049F84CF25030FFF73F
:1038700027FF0346FB73124B1B69114A23F0020317
:103880001361FB7B002B03D03B68BA681A600CE025
:10389000BB6803F58063BB607B68DB689A027B686A
:1038A0009B681344BA689A42DCD3044B00221A7610
:1038B000FB7B18461037BD4680BD00BF4804002082
:1038C0000020024080B483B000AF7860094B002232
:1038D000DA61094B1B69084A43F004031361064B84
:1038E0001B69054A43F04003136100BF0C37BD4616
:1038F00080BC7047480400200020024080B483B0A0
:1039000000AF78600B4B0022DA610B4B1B690A4A4F
:1039100043F002031361084A7B685361064B1B693D
:10392000054A43F04003136100BF0C37BD4680BC1D
:10393000704700BF480400200020024080B48BB0D4
:1039400000AF7860396000237B6200233B6269E14D
:1039500001227B6A02FA03F3FB613B681B68FA6988
:103960001340BB61BA69FB699A4240F058813B68D9
:103970005B689A4A93425ED0984A934275D8984AB7
:10398000934258D0964A93426FD8964A934252D067
:10399000944A934269D8944A93424CD0924A9342B3
:1039A00063D8924A934246D0904A93425DD8122BF4
:1039B0002AD8122B59D801A252F823F0373A00081E
:1039C000113A0008233A0008653A00086B3A0008EB
:1039D0006B3A00086B3A00086B3A00086B3A000833
:1039E0006B3A00086B3A00086B3A00086B3A000823
:1039F0006B3A00086B3A00086B3A00086B3A000813
:103A0000193A00082D3A0008794A934213D02CE065
:103A10003B68DB683B6229E03B68DB6804333B6260
:103A200024E03B68DB6808333B621FE03B68DB68EF
:103A30000C333B621AE03B689B68002B02D10423E5
:103A40003B6213E03B689B68012B05D108233B6276
:103A50007B68FA691A6109E008233B627B68FA69AE
:103A60005A6103E000233B6200E000BFBB69FF2B0B
:103A700001D87B6801E07B6804337B61BB69FF2B65
:103A800002D87B6A9B0002E07B6A083B9B003B619B
:103A90007B691A680F213B6901FA03F3DB431A4083
:103AA000396A3B6901FA03F31A437B691A603B6880
:103AB0005B6803F08053002B00F0B1804D4B9B6995
:103AC0004C4A43F0010393614A4B9B6903F00103A5
:103AD000BB60BB68484A7B6A9B08023352F82330BC
:103AE000FB607B6A03F003039B000F2202FA03F3DF
:103AF000DB43FA681340FB607B68404A934213D073
:103B00007B683F4A93420DD07B683E4A934207D080
:103B10007B683D4A934201D1032306E0042304E07D
:103B2000022302E0012300E000237A6A02F003028C
:103B300092009340FA681343FB602F497B6A9B080D
:103B40000233FA6841F823203B685B6803F4801372
:103B5000002B06D02D4B9A682C49BB6913438B6010
:103B600006E02A4B9A68BB69DB43284913408B6007
:103B70003B685B6803F40013002B06D0234BDA6824
:103B80002249BB691343CB6006E0204BDA68BB696E
:103B9000DB431E491340CB603B685B6803F4003392
:103BA000002B06D0194B5A681849BB6913434B6068
:103BB00006E0164B5A68BB69DB43144913404B605F
:103BC0003B685B6803F48033002B21D00F4B1A68ED
:103BD0000E49BB6913430B6021E000BF00003210A7
:103BE000000031100000221000002110000012100F
:103BF00000001110001002400000014000080140C8
:103C0000000C01400010014000140140000401407C
:103C10000B4B1A68BB69DB43094913400B607B6A95
:103C200001337B623B681A687B6A22FA03F3002B3C
:103C30007FF48EAE00BF00BF2C37BD4680BC7047FE
:103C40000004014080B483B000AF78600B467B80F5
:103C500013467B707B78002B03D07A887B681A61CF
:103C600003E07B881A047B681A6100BF0C37BD46ED
:103C700080BC704780B586B000AF78607B68002B51
:103C800001D1012372E27B681B6803F00103002B62
:103C900000F08780924B5B6803F00C03042B0CD080
:103CA0008F4B5B6803F00C03082B12D18C4B5B68C5
:103CB00003F48033B3F5803F0BD1894B1B6803F4C9
:103CC0000033002B6CD07B685B68002B68D101232C
:103CD0004CE27B685B68B3F5803F06D1804B1B6884
:103CE0007F4A43F4803313602EE07B685B68002BCF
:103CF0000CD17B4B1B687A4A23F480331360784BDA
:103D00001B68774A23F4802313601DE07B685B689F
:103D1000B3F5A02F0CD1724B1B68714A43F480237A
:103D200013606F4B1B686E4A43F4803313600BE0E3
:103D30006B4B1B686A4A23F480331360684B1B6823
:103D4000674A23F4802313607B685B68002B13D0E1
:103D5000FFF706FA386108E0FFF702FA02463B690E
:103D6000D31A642B01D9032300E25D4B1B6803F4D3
:103D70000033002BF0D014E0FFF7F2F9386108E0CF
:103D8000FFF7EEF902463B69D31A642B01D90323EE
:103D9000ECE1534B1B6803F40033002BF0D100E03F
:103DA00000BF7B681B6803F00203002B63D04C4B01
:103DB0005B6803F00C03002B0BD0494B5B6803F0EE
:103DC0000C03082B1CD1464B5B6803F48033002B9B
:103DD00016D1434B1B6803F00203002B05D07B6810
:103DE0001B69012B01D00123C0E13D4B1B6823F06F
:103DF000F8027B685B69DB00394913430B603AE0EA
:103E00007B681B69002B20D0364B01221A60FFF71C
:103E1000A7F9386108E0FFF7A3F902463B69D31A16
:103E2000022B01D90323A1E12D4B1B6803F00203F0
:103E3000002BF0D02A4B1B6823F0F8027B685B69EB
:103E4000DB00274913430B6015E0264B00221A6064
:103E5000FFF786F9386108E0FFF782F902463B690F
:103E6000D31A022B01D9032380E11D4B1B6803F0F9
:103E70000203002BF0D17B681B6803F00803002BC2
:103E80003AD07B689B69002B19D0174B01221A602E
:103E9000FFF766F9386108E0FFF762F902463B690F
:103EA000D31A022B01D9032360E10D4B5B6A03F0A7
:103EB0000203002BF0D0012000F0CEFA1CE00A4BE8
:103EC00000221A60FFF74CF938610FE0FFF748F95C
:103ED00002463B69D31A022B08D9032346E100BFEF
:103EE000001002400000424280044242924B5B6A52
:103EF00003F00203002BE9D17B681B6803F0040385
:103F0000002B00F0A6800023FB758B4BDB6903F0D0
:103F10008053002B0DD1884BDB69874A43F08053D7
:103F2000D361854BDB6903F08053BB60BB68012321
:103F3000FB75824B1B6803F48073002B18D17F4BF9
:103F40001B687E4A43F480731360FFF709F93861F8
:103F500008E0FFF705F902463B69D31A642B01D943
:103F6000032303E1754B1B6803F48073002BF0D02F
:103F70007B68DB68012B06D16F4B1B6A6E4A43F0EE
:103F8000010313622DE07B68DB68002B0CD16A4BC8
:103F90001B6A694A23F001031362674B1B6A664A76
:103FA00023F0040313621CE07B68DB68052B0CD153
:103FB000614B1B6A604A43F0040313625E4B1B6A49
:103FC0005D4A43F0010313620BE05B4B1B6A5A4AE4
:103FD00023F001031362584B1B6A574A23F0040372
:103FE00013627B68DB68002B15D0FFF7B9F83861E6
:103FF0000AE0FFF7B5F802463B69D31A41F288326E
:10400000934201D90323B1E04B4B1B6A03F0020337
:10401000002BEED014E0FFF7A3F838610AE0FFF7B9
:104020009FF802463B69D31A41F28832934201D984
:1040300003239BE0404B1B6A03F00203002BEED1ED
:10404000FB7D012B05D13C4BDB693B4A23F08053C0
:10405000D3617B68DB69002B00F08780364B5B689F
:1040600003F00C03082B61D07B68DB69022B46D17F
:10407000334B00221A60FFF773F8386108E0FFF74E
:104080006FF802463B69D31A022B01D903236DE076
:10409000294B1B6803F00073002BF0D17B681B6A6F
:1040A000B3F5803F08D1244B5B6823F400327B6872
:1040B0009B68214913434B601F4B5B6823F47412C8
:1040C0007B68196A7B685B6A0B431B4913434B602F
:1040D0001B4B01221A60FFF743F8386108E0FFF735
:1040E0003FF802463B69D31A022B01D903233DE076
:1040F000114B1B6803F00073002BF0D035E0104B20
:1041000000221A60FFF72CF8386108E0FFF728F862
:1041100002463B69D31A022B01D9032326E0064B42
:104120001B6803F00073002BF0D11EE07B68DB6995
:10413000012B07D1012319E000100240007000405C
:10414000600042420B4B5B68FB60FB6803F480320B
:104150007B681B6A9A4206D1FB6803F470127B6885
:104160005B6A9A4201D0012300E000231846183709
:10417000BD4680BD0010024080B584B000AF7860BD
:1041800039607B68002B01D10123D0E06A4B1B68AA
:1041900003F007033A689A4210D9674B1B6823F073
:1041A000070265493B6813430B60634B1B6803F0D0
:1041B00007033A689A4201D00123B8E07B681B6884
:1041C00003F00203002B20D07B681B6803F004037C
:1041D000002B05D0594B5B68584A43F4E0635360A9
:1041E0007B681B6803F00803002B05D0534B5B680A
:1041F000524A43F460535360504B5B6823F0F00223
:104200007B689B684D4913434B607B681B6803F0D8
:104210000103002B40D07B685B68012B07D1474B23
:104220001B6803F40033002B15D101237FE07B686A
:104230005B68022B07D1414B1B6803F00073002B16
:1042400009D1012373E03D4B1B6803F00203002BEF
:1042500001D101236BE0394B5B6823F003027B68DB
:104260005B68364913434B60FEF77AFFF8600AE05B
:10427000FEF776FF0246FB68D31A41F2883293427A
:1042800001D9032353E02D4B5B6803F00C027B68DC
:104290005B689B009A42EBD1274B1B6803F0070336
:1042A0003A689A4210D2244B1B6823F00702224935
:1042B0003B6813430B60204B1B6803F007033A680D
:1042C0009A4201D0012332E07B681B6803F00403AB
:1042D000002B08D0194B5B6823F4E0627B68DB6835
:1042E000164913434B607B681B6803F00803002BDF
:1042F00009D0124B5B6823F460527B681B69DB00BA
:104300000E4913434B6000F021F802460B4B5B68EB
:104310001B0903F00F030A49CB5C22FA03F3094A95
:104320001360094B1B681846FEF7D8FE0023184699
:104330001037BD4680BD00BF002002400010024083
:1043400000610008600000206400002080B487B095
:1043500000AF0023FB600023BB6000237B610023D0
:104360007B6000233B611E4B5B68FB60FB6803F0D6
:104370000C03042B02D0082B03D027E0194B3B6120
:1043800027E0FB689B0C03F00F03174AD35C7B60AC
:10439000FB6803F48033002B10D0114B5B685B0C7F
:1043A00003F00103114AD35CBB607B680D4A03FB39
:1043B00002F2BB68B2FBF3F37B6104E07B680C4A5A
:1043C00002FB03F37B617B693B6102E0054B3B61D0
:1043D00000BF3B6918461C37BD4680BC704700BF14
:1043E0000010024000127A001861000828610008DD
:1043F00000093D0080B400AF024B1B681846BD4663
:1044000080BC70476000002080B500AFFFF7F2FF6E
:104410000246054B5B681B0A03F007030349CB5CAC
:1044200022FA03F3184680BD001002401061000814
:1044300080B500AFFFF7DEFF0246054B5B68DB0A85
:1044400003F007030349CB5C22FA03F3184680BD4F
:10445000001002401061000880B485B000AF7860A1
:104460000A4B1B680A4AA2FB03235B0A7A6802FB19
:1044700003F3FB6000BFFB685A1EFA60002BF9D102
:1044800000BF00BF1437BD4680BC704760000020ED
:10449000D34D621080B582B000AF78607B68002B8E
:1044A00001D1012376E07B685B6A002B08D17B6831
:1044B0005B68B3F5827F09D07B680022DA6105E092
:1044C0007B6800221A617B6800225A617B680022A7
:1044D0009A627B6893F85130DBB2002B06D17B687F
:1044E000002283F850207868FEF7C8FB7B68022220
:1044F00083F851207B681B681A687B681B6822F070
:1045000040021A607B685B6803F482727B689B6878
:1045100003F404431A437B68DB6803F400631A4323
:104520007B681B6903F002031A437B685B6903F035
:1045300001031A437B689B6903F400731A437B6889
:10454000DB6903F038031A437B681B6A03F08003BE
:1045500042EA03017B689B6A03F400527B681B6894
:104560000A431A607B689B691A0C7B681B6802F01F
:1045700004025A607B681B68DA697B681B6822F456
:104580000062DA617B6800225A657B68012283F849
:104590005120002318460837BD4680BD80B582B043
:1045A00000AF78607B68002B01D1012341E07B687C
:1045B00093F83D30DBB2002B06D17B68002283F8F4
:1045C0003C207868FEF7A6FB7B68022283F83D203A
:1045D0007B681A687B6804331946104600F018FCA3
:1045E0007B68012283F846207B68012283F83E2005
:1045F0007B68012283F83F207B68012283F84020FA
:104600007B68012283F841207B68012283F84220E5
:104610007B68012283F843207B68012283F84420D1
:104620007B68012283F845207B68012283F83D20C6
:10463000002318460837BD4680BD000080B485B011
:1046400000AF78607B6893F83D30DBB2012B01D07E
:1046500001233AE07B68022283F83D207B681B68D7
:10466000DA687B681B6842F00102DA607B681B68CD
:10467000184A93420ED07B681B68B3F1804F09D073
:104680007B681B68144A934204D07B681B68134AFA
:10469000934211D17B681B689B6803F00703FB60A2
:1046A000FB68062B10D07B681B681A687B681B6848
:1046B00042F001021A6007E07B681B681A687B6899
:1046C0001B6842F001021A60002318461437BD46E9
:1046D00080BC7047002C01400004004000080040EE
:1046E00080B582B000AF78607B68002B01D10123D8
:1046F00041E07B6893F83D30DBB2002B06D17B684C
:10470000002283F83C20786800F039F87B680222A8
:1047100083F83D207B681A687B680433194610468D
:1047200000F076FB7B68012283F846207B6801223B
:1047300083F83E207B68012283F83F207B680122BA
:1047400083F840207B68012283F841207B680122A6
:1047500083F842207B68012283F843207B68012292
:1047600083F844207B68012283F845207B6801227E
:1047700083F83D20002318460837BD4680BD80B42D
:1047800083B000AF786000BF0C37BD4680BC704777
:1047900080B584B000AF786039603B68002B09D1E8
:1047A0007B6893F83E30DBB2012B14BF012300235A
:1047B000DBB222E03B68042B09D17B6893F83F30E1
:1047C000DBB2012B14BF01230023DBB215E03B68F1
:1047D000082B09D17B6893F84030DBB2012B14BF62
:1047E00001230023DBB208E07B6893F84130DBB2A1
:1047F000012B14BF01230023DBB2002B01D00123C6
:104800005EE03B68002B04D17B68022283F83E20E7
:1048100013E03B68042B04D17B68022283F83F201D
:104820000BE03B68082B04D17B68022283F8402010
:1048300003E07B68022283F841207B681B68012229
:104840003968184600F070FD7B681B681E4A934269
:1048500007D17B681B685A6C7B681B6842F4004276
:104860005A647B681B68184A93420ED07B681B68A9
:10487000B3F1804F09D07B681B68144A934204D07F
:104880007B681B68124A934211D17B681B689B6846
:1048900003F00703FB60FB68062B10D07B681B68E6
:1048A0001A687B681B6842F001021A6007E07B68A7
:1048B0001B681A687B681B6842F001021A600023BB
:1048C00018461037BD4680BD002C01400004004052
:1048D0000008004080B584B000AF78607B681B683A
:1048E000DB68FB607B681B681B69BB60BB6803F00F
:1048F0000203002B20D0FB6803F00203002B1BD027
:104900007B681B686FF002021A617B6801221A77CC
:104910007B681B689B6903F00303002B03D0786856
:1049200000F05AFA05E0786800F04DFA786800F077
:104930005CFA7B6800221A77BB6803F00403002B43
:1049400020D0FB6803F00403002B1BD07B681B689E
:104950006FF004021A617B6802221A777B681B6879
:104960009B6903F44073002B03D0786800F034FA9D
:1049700005E0786800F027FA786800F036FA7B687E
:1049800000221A77BB6803F00803002B20D0FB68D5
:1049900003F00803002B1BD07B681B686FF0080234
:1049A0001A617B6804221A777B681B68DB6903F055
:1049B0000303002B03D0786800F00EFA05E0786856
:1049C00000F001FA786800F010FA7B6800221A778C
:1049D000BB6803F01003002B20D0FB6803F010032A
:1049E000002B1BD07B681B686FF010021A617B687C
:1049F00008221A777B681B68DB6903F44073002B7D
:104A000003D0786800F0E8F905E0786800F0DBF999
:104A1000786800F0EAF97B6800221A77BB6803F037
:104A20000103002B0CD0FB6803F00103002B07D01F
:104A30007B681B686FF001021A617868FDF76AFFF6
:104A4000BB6803F08003002B0CD0FB6803F08003ED
:104A5000002B07D07B681B686FF080021A617868B2
:104A600000F0EDFCBB6803F04003002B0CD0FB68AA
:104A700003F04003002B07D07B681B686FF04002F7
:104A80001A61786800F0BAF9BB6803F02003002BC4
:104A90000CD0FB6803F02003002B07D07B681B6859
:104AA0006FF020021A61786800F0C0FC00BF103778
:104AB000BD4680BD80B586B000AFF860B9607A6051
:104AC0000023FB75FB6893F83C30012B01D10223D6
:104AD000AEE0FB68012283F83C207B680C2B00F2DF
:104AE0009F8001A252F823F01D4B0008214C0008C2
:104AF000214C0008214C00085D4B0008214C0008A7
:104B0000214C0008214C00089F4B0008214C000854
:104B1000214C0008214C0008DF4B0008FB681B6893
:104B2000B968184600F0E2F9FB681B689A69FB68EF
:104B30001B6842F008029A61FB681B689A69FB686F
:104B40001B6822F004029A61FB681B689969BB68C4
:104B50001A69FB681B680A439A6164E0FB681B687A
:104B6000B968184600F028FAFB681B689A69FB6868
:104B70001B6842F400629A61FB681B689A69FB68D3
:104B80001B6822F480629A61FB681B689969BB68A4
:104B90001B691A02FB681B680A439A6143E0FB68C1
:104BA0001B68B968184600F071FAFB681B68DA697F
:104BB000FB681B6842F00802DA61FB681B68DA696F
:104BC000FB681B6822F00402DA61FB681B68D96984
:104BD000BB681A69FB681B680A43DA6123E0FB685B
:104BE0001B68B968184600F0BBFAFB681B68DA69F5
:104BF000FB681B6842F40062DA61FB681B68DA69D3
:104C0000FB681B6822F48062DA61FB681B68D96963
:104C1000BB681B691A02FB681B680A43DA6102E081
:104C20000123FB7500BFFB68002283F83C20FB7D5D
:104C300018461837BD4680BD80B584B000AF786097
:104C400039600023FB737B6893F83C30012B01D162
:104C50000223B4E07B68012283F83C207B680222B7
:104C600083F83D207B681B689B68BB60BB6823F0B2
:104C70007703BB60BB6823F47F43BB607B681B6822
:104C8000BA689A603B681B68B3F5005F3ED0B3F525
:104C9000005F00F28780B3F5805F00F08680B3F597
:104CA000805F7FD8702B1AD0702B7BD8602B50D0B0
:104CB000602B77D8502B3CD0502B73D8402B58D03A
:104CC000402B6FD8302B64D0302B6BD8202B60D08A
:104CD000202B67D8002B5CD0102B5AD062E07B6869
:104CE00018683B6899683B685A683B68DB6800F065
:104CF000FCFA7B681B689B68BB60BB6843F077036A
:104D0000BB607B681B68BA689A604FE07B68186874
:104D10003B6899683B685A683B68DB6800F0E5FAD5
:104D20007B681B689A687B681B6842F480429A60C3
:104D30003CE07B6818683B6859683B68DB681A464A
:104D400000F05CFA7B681B685021184600F0B3FA4B
:104D50002CE07B6818683B6859683B68DB681A463A
:104D600000F07AFA7B681B686021184600F0A3FA0D
:104D70001CE07B6818683B6859683B68DB681A462A
:104D800000F03CFA7B681B684021184600F093FA5B
:104D90000CE07B681A683B681B681946104600F0F7
:104DA0008AFA03E00123FB7300E000BF7B68012265
:104DB00083F83D207B68002283F83C20FB7B18466B
:104DC0001037BD4680BD80B483B000AF786000BFAF
:104DD0000C37BD4680BC704780B483B000AF7860AC
:104DE00000BF0C37BD4680BC704780B483B000AFB5
:104DF000786000BF0C37BD4680BC704780B483B07C
:104E000000AF786000BF0C37BD4680BC7047000023
:104E100080B485B000AF786039607B681B68FB6048
:104E20007B682F4A93420BD07B68B3F1804F07D049
:104E30007B682C4A934203D07B682B4A934208D16B
:104E4000FB6823F07003FB603B685B68FA68134300
:104E5000FB607B68224A93420BD07B68B3F1804FA2
:104E600007D07B681F4A934203D07B681E4A934257
:104E700008D1FB6823F44073FB603B68DB68FA6889
:104E80001343FB60FB6823F080023B685B691343BC
:104E9000FB607B68FA681A603B689A687B68DA6234
:104EA0003B681A687B689A627B680D4A934203D11B
:104EB0003B681A697B681A637B6801225A617B68C8
:104EC0001B6903F00103002B05D07B681B6923F0ED
:104ED00001027B681A6100BF1437BD4680BC704771
:104EE000002C0140000400400008004080B487B05E
:104EF00000AF786039607B681B6A7B617B681B6AE6
:104F000023F001027B681A627B685B683B617B6807
:104F10009B69FB60FB6823F07003FB60FB6823F078
:104F20000303FB603B681B68FA681343FB607B6903
:104F300023F002037B613B689B687A6913437B61C2
:104F40007B681C4A93420CD17B6923F008037B6188
:104F50003B68DB687A6913437B617B6923F0040358
:104F60007B617B68134A934211D13B6923F48073C0
:104F70003B613B6923F400733B613B685B693A69C1
:104F800013433B613B689B693A6913433B617B6810
:104F90003A695A607B68FA689A613B685A687B682C
:104FA0005A637B687A691A6200BF1C37BD4680BCB1
:104FB000704700BF002C014080B487B000AF78601C
:104FC00039607B681B6A7B617B681B6A23F0100277
:104FD0007B681A627B685B683B617B689B69FB60EE
:104FE000FB6823F4E043FB60FB6823F44073FB6041
:104FF0003B681B681B02FA681343FB607B6923F064
:1050000020037B613B689B681B017A6913437B61CA
:105010007B681D4A93420DD17B6923F080037B613D
:105020003B68DB681B017A6913437B617B6923F072
:1050300040037B617B68144A934213D13B6923F49C
:1050400080633B613B6923F400633B613B685B69C0
:105050009B003A6913433B613B689B699B003A693B
:1050600013433B617B683A695A607B68FA689A61CE
:105070003B685A687B689A637B687A691A6200BFEA
:105080001C37BD4680BC7047002C014080B487B0FF
:1050900000AF786039607B681B6A7B617B681B6A44
:1050A00023F480727B681A627B685B683B617B6873
:1050B000DB69FB60FB6823F07003FB60FB6823F097
:1050C0000303FB603B681B68FA681343FB607B6962
:1050D00023F400737B613B689B681B027A6913436E
:1050E0007B617B681D4A93420DD17B6923F4006389
:1050F0007B613B68DB681B027A6913437B617B69D8
:1051000023F480637B617B68144A934213D13B692B
:1051100023F480533B613B6923F400533B613B68BC
:105120005B691B013A6913433B613B689B691B0147
:105130003A6913433B617B683A695A607B68FA6855
:10514000DA613B685A687B68DA637B687A691A625D
:1051500000BF1C37BD4680BC704700BF002C01401B
:1051600080B487B000AF786039607B681B6A3B61B0
:105170007B681B6A23F480527B681A627B685B68D9
:105180007B617B68DB69FB60FB6823F4E043FB60C9
:10519000FB6823F44073FB603B681B681B02FA68E2
:1051A0001343FB603B6923F400533B613B689B68FE
:1051B0001B033A6913433B617B680F4A934209D151
:1051C0007B6923F480437B613B685B699B017A695F
:1051D00013437B617B687A695A607B68FA68DA619D
:1051E0003B685A687B681A647B683A691A6200BF38
:1051F0001C37BD4680BC7047002C014080B487B08E
:1052000000AFF860B9607A60FB681B6A7B61FB687D
:105210001B6A23F00102FB681A62FB689B693B6111
:105220003B6923F0F0033B617B681B013A69134340
:105230003B617B6923F00A037B617A69BB68134396
:105240007B61FB683A699A61FB687A691A6200BF00
:105250001C37BD4680BC704780B487B000AFF86093
:10526000B9607A60FB681B6A7B61FB681B6A23F08C
:105270001002FB681A62FB689B693B613B6923F47F
:1052800070433B617B681B033A6913433B617B6955
:1052900023F0A0037B61BB681B017A6913437B6128
:1052A000FB683A699A61FB687A691A6200BF1C3729
:1052B000BD4680BC704780B485B000AF786039606F
:1052C0007B689B68FB60FB6823F07003FB603A68B7
:1052D000FB68134343F00703FB607B68FA689A603E
:1052E00000BF1437BD4680BC704780B487B000AFA4
:1052F000F860B9607A603B60FB689B687B617B69A2
:1053000023F47F437B613B681A027B681A43BB68C6
:1053100013437A6913437B61FB687A699A6000BF23
:105320001C37BD4680BC704780B487B000AFF860C2
:10533000B9607A60BB6803F01F03012202FA03F32D
:105340007B61FB681A6A7B69DB431A40FB681A625F
:10535000FB681A6ABB6803F01F03796801FA03F35C
:105360001A43FB681A6200BF1C37BD4680BC7047F9
:1053700080B485B000AF786039607B6893F83C30CA
:10538000012B01D1022346E07B68012283F83C20F7
:105390007B68022283F83D207B681B685B68FB60AA
:1053A0007B681B689B68BB60FB6823F07003FB6035
:1053B0003B681B68FA681343FB607B681B68FA68EC
:1053C0005A607B681B68164A93420ED07B681B6844
:1053D000B3F1804F09D07B681B68124A934204D016
:1053E0007B681B68104A93420CD1BB6823F0800392
:1053F000BB603B685B68BA681343BB607B681B6833
:10540000BA689A607B68012283F83D207B6800229D
:1054100083F83C20002318461437BD4680BC7047F3
:10542000002C0140000400400008004080B483B01C
:1054300000AF786000BF0C37BD4680BC704780B4B9
:1054400083B000AF786000BF0C37BD4680BC7047AA
:1054500080B582B000AF78607B68002B01D101235A
:1054600042E07B6893F84130DBB2002B06D17B68C9
:10547000002283F840207868FDF700FD7B68242235
:1054800083F841207B681B68DA687B681B6822F41C
:105490000052DA60786800F035FD7B681B681A6995
:1054A0007B681B6822F490421A617B681B685A690A
:1054B0007B681B6822F02A025A617B681B68DA68E5
:1054C0007B681B6842F40052DA607B6800225A64F1
:1054D0007B68202283F841207B68202283F84220C9
:1054E0007B6800225A63002318460837BD4680BDFA
:1054F00080B485B000AFF860B9601346FB80FB68EC
:1055000093F84130DBB2202B21D1BB68002B02D0B5
:10551000FB88002B01D101231AE0FB68BA681A62EC
:10552000FB68FA889A84FB68FA88DA84FB680022B0
:105530005A64FB68212283F84120FB681B68DA6803
:10554000FB681B6842F08002DA60002300E002235F
:1055500018461437BD4680BC704780B58CB000AF8C
:10556000F860B9601346FB80FB6893F84230DBB209
:10557000202B4AD1BB68002B02D0FB88002B01D125
:10558000012343E0FB6801221A63FB6800225A638F
:10559000FB881A46B968F86800F0E0FA034687F815
:1055A0002F3097F82F30002B2CD1FB681B6B012B71
:1055B00025D100233B61FB681B681B683B61FB68CE
:1055C0001B685B683B613B69FB681B680C33BB6114
:1055D000BB6953E8003F7B617B6943F01003BB620A
:1055E000FB681B680C33BA6A7A623B62396A7A6A72
:1055F00041E80023FB61FB69002BE5D102E00123B8
:1056000087F82F3097F82F3000E002231846303704
:10561000BD4680BD80B5BAB000AF78607B681B68BE
:105620001B68C7F8E4307B681B68DB68C7F8E030AC
:105630007B681B685B69C7F8DC300023C7F8D8308B
:105640000023C7F8D430D7F8E43003F00F03C7F8CD
:10565000D830D7F8D830002B0FD1D7F8E43003F08A
:105660002003002B09D0D7F8E03003F02003002BF3
:1056700003D0786800F088FB5BE2D7F8D830002BC5
:1056800000F0DE80D7F8DC3003F00103002B06D1F8
:10569000D7F8E03003F49073002B00F0D180D7F8F6
:1056A000E43003F00103002B0BD0D7F8E03003F413
:1056B0008073002B05D07B685B6C43F001027B6834
:1056C0005A64D7F8E43003F00403002B0BD0D7F86A
:1056D000DC3003F00103002B05D07B685B6C43F0EA
:1056E00002027B685A64D7F8E43003F00203002B0F
:1056F0000BD0D7F8DC3003F00103002B05D07B681A
:105700005B6C43F004027B685A64D7F8E43003F022
:105710000803002B11D0D7F8E03003F02003002B52
:1057200005D1D7F8DC3003F00103002B05D07B68EE
:105730005B6C43F008027B685A647B685B6C002BEF
:1057400000F0F281D7F8E43003F02003002B08D0FA
:10575000D7F8E03003F02003002B02D0786800F087
:1057600013FB7B681B685B6903F04003002B14BFCD
:1057700001230023DBB2C7F8D4307B685B6C03F0F5
:105780000803002B03D1D7F8D430002B4FD0786812
:1057900000F01DFA7B681B685B6903F04003002B77
:1057A00041D07B681B681433C7F89C30D7F89C3015
:1057B00053E8003FC7F89830D7F8983023F04003FB
:1057C000C7F8D0307B681B681433D7F8D020C7F8EF
:1057D000A820C7F8A430D7F8A410D7F8A82041E82B
:1057E0000023C7F8A030D7F8A030002BD9D17B68B0
:1057F000DB6B002B13D07B68DB6B7E4A5A637B68C4
:10580000DB6B1846FDF722FE0346002B16D07B68A3
:10581000DB6B5B6B7A68D26B104698470EE078685A
:1058200000F093F90AE0786800F08FF906E07868F4
:1058300000F08BF97B6800225A6475E100BF73E1C8
:105840007B681B6B012B40F04F81D7F8E43003F0ED
:105850001003002B00F04881D7F8E03003F010036C
:10586000002B00F041810023BB607B681B681B6834
:10587000BB607B681B685B68BB60BB687B681B6840
:105880005B6903F04003002B00F0B6807B68DB6BA4
:105890001B685B68A7F8BE30B7F8BE30002B00F07D
:1058A00045817B689B8DB7F8BE209A4280F03E818F
:1058B0007B68B7F8BE20DA857B68DB6B9B69202BA1
:1058C00000F088807B681B680C33C7F88830D7F8F5
:1058D000883053E8003FC7F88430D7F8843023F489
:1058E0008073C7F8B8307B681B680C33D7F8B820D2
:1058F000C7F89420C7F89030D7F89010D7F89420C4
:1059000041E80023C7F88C30D7F88C30002BD9D170
:105910007B681B6814337B677B6F53E8003F3B67F2
:105920003B6F23F00103C7F8B4307B681B68143366
:10593000D7F8B420C7F88020FB67F96FD7F880202C
:1059400041E80023BB67BB6F002BE1D17B681B687C
:1059500014333B663B6E53E8003FFB65FB6D23F061
:105960004003C7F8B0307B681B681433D7F8B02009
:10597000FA66BB66B96EFA6E41E800237B667B6E01
:10598000002BE3D17B68202283F842207B68002231
:105990001A637B681B680C33FB64FB6C53E8003FA5
:1059A000BB64BB6C23F01003C7F8AC307B681B688A
:1059B0000C33D7F8AC20BA657B65796DBA6D41E8D8
:1059C00000233B653B6D002BE3D17B68DB6B184606
:1059D000FDF701FD7B6802225A637B689A8D7B6824
:1059E000DB8D9BB2D31A9BB219467868FCF72AFF6D
:1059F0009CE000BF935C00087B689A8D7B68DB8D20
:105A00009BB2D31AA7F8CE307B68DB8D9BB2002BFC
:105A100000F08E80B7F8CE30002B00F089807B68D4
:105A20001B680C33BB63BB6B53E8003F7B637B6B32
:105A300023F49073C7F8C8307B681B680C33D7F821
:105A4000C8207A643B64396C7A6C41E80023FB63BC
:105A5000FB6B002BE3D17B681B6814337B627B6A92
:105A600053E8003F3B623B6A23F00103C7F8C430B0
:105A70007B681B681433D7F8C4203A63FB62F96A69
:105A80003A6B41E80023BB62BB6A002BE3D17B6821
:105A9000202283F842207B6800221A637B681B68FF
:105AA0000C333B613B6953E8003FFB60FB6823F02C
:105AB0001003C7F8C0307B681B680C33D7F8C020D0
:105AC000FA61BB61B969FA6941E800237B617B69CE
:105AD000002BE3D17B6802225A63B7F8CE30194617
